{
  "contractName": "KeepRandomBeaconServiceImplV1",
  "abi": [
    {
      "inputs": [],
      "payable": false,
      "stateMutability": "nonpayable",
      "type": "constructor"
    },
    {
      "anonymous": false,
      "inputs": [
        {
          "indexed": false,
          "internalType": "uint256",
          "name": "requestId",
          "type": "uint256"
        },
        {
          "indexed": false,
          "internalType": "uint256",
          "name": "entry",
          "type": "uint256"
        }
      ],
      "name": "RelayEntryGenerated",
      "type": "event"
    },
    {
      "anonymous": false,
      "inputs": [
        {
          "indexed": false,
          "internalType": "uint256",
          "name": "requestId",
          "type": "uint256"
        }
      ],
      "name": "RelayEntryRequested",
      "type": "event"
    },
    {
      "constant": false,
      "inputs": [
        {
          "internalType": "uint256",
          "name": "dkgContributionMargin",
          "type": "uint256"
        },
        {
          "internalType": "address",
          "name": "registry",
          "type": "address"
        }
      ],
      "name": "initialize",
      "outputs": [],
      "payable": false,
      "stateMutability": "nonpayable",
      "type": "function"
    },
    {
      "constant": true,
      "inputs": [],
      "name": "initialized",
      "outputs": [
        {
          "internalType": "bool",
          "name": "",
          "type": "bool"
        }
      ],
      "payable": false,
      "stateMutability": "view",
      "type": "function"
    },
    {
      "constant": false,
      "inputs": [
        {
          "internalType": "address",
          "name": "operatorContract",
          "type": "address"
        }
      ],
      "name": "addOperatorContract",
      "outputs": [],
      "payable": false,
      "stateMutability": "nonpayable",
      "type": "function"
    },
    {
      "constant": false,
      "inputs": [
        {
          "internalType": "address",
          "name": "operatorContract",
          "type": "address"
        }
      ],
      "name": "removeOperatorContract",
      "outputs": [],
      "payable": false,
      "stateMutability": "nonpayable",
      "type": "function"
    },
    {
      "constant": false,
      "inputs": [],
      "name": "fundDkgFeePool",
      "outputs": [],
      "payable": true,
      "stateMutability": "payable",
      "type": "function"
    },
    {
      "constant": false,
      "inputs": [],
      "name": "fundRequestSubsidyFeePool",
      "outputs": [],
      "payable": true,
      "stateMutability": "payable",
      "type": "function"
    },
    {
      "constant": true,
      "inputs": [
        {
          "internalType": "uint256",
          "name": "seed",
          "type": "uint256"
        }
      ],
      "name": "selectOperatorContract",
      "outputs": [
        {
          "internalType": "address",
          "name": "",
          "type": "address"
        }
      ],
      "payable": false,
      "stateMutability": "view",
      "type": "function"
    },
    {
      "constant": false,
      "inputs": [],
      "name": "requestRelayEntry",
      "outputs": [
        {
          "internalType": "uint256",
          "name": "",
          "type": "uint256"
        }
      ],
      "payable": true,
      "stateMutability": "payable",
      "type": "function"
    },
    {
      "constant": false,
      "inputs": [
        {
          "internalType": "address",
          "name": "callbackContract",
          "type": "address"
        },
        {
          "internalType": "uint256",
          "name": "callbackGas",
          "type": "uint256"
        }
      ],
      "name": "requestRelayEntry",
      "outputs": [
        {
          "internalType": "uint256",
          "name": "",
          "type": "uint256"
        }
      ],
      "payable": true,
      "stateMutability": "payable",
      "type": "function"
    },
    {
      "constant": false,
      "inputs": [
        {
          "internalType": "uint256",
          "name": "requestId",
          "type": "uint256"
        },
        {
          "internalType": "bytes",
          "name": "entry",
          "type": "bytes"
        },
        {
          "internalType": "address payable",
          "name": "submitter",
          "type": "address"
        }
      ],
      "name": "entryCreated",
      "outputs": [],
      "payable": false,
      "stateMutability": "nonpayable",
      "type": "function"
    },
    {
      "constant": false,
      "inputs": [
        {
          "internalType": "uint256",
          "name": "requestId",
          "type": "uint256"
        },
        {
          "internalType": "uint256",
          "name": "entry",
          "type": "uint256"
        }
      ],
      "name": "executeCallback",
      "outputs": [],
      "payable": false,
      "stateMutability": "nonpayable",
      "type": "function"
    },
    {
      "constant": true,
      "inputs": [],
      "name": "baseCallbackGas",
      "outputs": [
        {
          "internalType": "uint256",
          "name": "",
          "type": "uint256"
        }
      ],
      "payable": false,
      "stateMutability": "view",
      "type": "function"
    },
    {
      "constant": true,
      "inputs": [
        {
          "internalType": "uint256",
          "name": "callbackGas",
          "type": "uint256"
        }
      ],
      "name": "entryFeeEstimate",
      "outputs": [
        {
          "internalType": "uint256",
          "name": "",
          "type": "uint256"
        }
      ],
      "payable": false,
      "stateMutability": "view",
      "type": "function"
    },
    {
      "constant": true,
      "inputs": [],
      "name": "entryFeeBreakdown",
      "outputs": [
        {
          "internalType": "uint256",
          "name": "entryVerificationFee",
          "type": "uint256"
        },
        {
          "internalType": "uint256",
          "name": "dkgContributionFee",
          "type": "uint256"
        },
        {
          "internalType": "uint256",
          "name": "groupProfitFee",
          "type": "uint256"
        },
        {
          "internalType": "uint256",
          "name": "gasPriceCeiling",
          "type": "uint256"
        }
      ],
      "payable": false,
      "stateMutability": "view",
      "type": "function"
    },
    {
      "constant": true,
      "inputs": [],
      "name": "dkgContributionMargin",
      "outputs": [
        {
          "internalType": "uint256",
          "name": "",
          "type": "uint256"
        }
      ],
      "payable": false,
      "stateMutability": "view",
      "type": "function"
    },
    {
      "constant": true,
      "inputs": [],
      "name": "dkgFeePool",
      "outputs": [
        {
          "internalType": "uint256",
          "name": "",
          "type": "uint256"
        }
      ],
      "payable": false,
      "stateMutability": "view",
      "type": "function"
    },
    {
      "constant": true,
      "inputs": [],
      "name": "requestSubsidyFeePool",
      "outputs": [
        {
          "internalType": "uint256",
          "name": "",
          "type": "uint256"
        }
      ],
      "payable": false,
      "stateMutability": "view",
      "type": "function"
    },
    {
      "constant": true,
      "inputs": [
        {
          "internalType": "uint256",
          "name": "requestId",
          "type": "uint256"
        }
      ],
      "name": "callbackSurplusRecipient",
      "outputs": [
        {
          "internalType": "address payable",
          "name": "",
          "type": "address"
        }
      ],
      "payable": false,
      "stateMutability": "view",
      "type": "function"
    },
    {
      "constant": true,
      "inputs": [],
      "name": "version",
      "outputs": [
        {
          "internalType": "string",
          "name": "",
          "type": "string"
        }
      ],
      "payable": false,
      "stateMutability": "pure",
      "type": "function"
    }
  ],
  "bytecode": "0x608060405234801561001057600080fd5b5060016000819055506001600a60405180807f4b65657052616e646f6d426561636f6e53657276696365496d706c5631000000815250601d019050908152602001604051809103902060006101000a81548160ff021916908315150217905550612d978061007f6000396000f3fe6080604052600436106101145760003560e01c8063687d088e116100a0578063e1f9589011610064578063e1f958901461046c578063e58990c5146104ce578063ef7284e31461051f578063efc4971f14610611578063fc3fcec71461068c57610114565b8063687d088e1461032c578063d09dd57414610357578063d13f139114610382578063da35a26f146103d1578063dede8e951461042c57610114565b8063280f2043116100e7578063280f2043146101f85780632d53fe8b146102235780634611b6481461024157806354fd4d501461024b57806360e07ffd146102db57610114565b80630fda9ce414610119578063100aea0b1461019457806311e816ee146101bf578063158ef93e146101c9575b600080fd5b34801561012557600080fd5b506101526004803603602081101561013c57600080fd5b81019080803590602001909291905050506106d1565b604051808273ffffffffffffffffffffffffffffffffffffffff1673ffffffffffffffffffffffffffffffffffffffff16815260200191505060405180910390f35b3480156101a057600080fd5b506101a9610711565b6040518082815260200191505060405180910390f35b6101c761071b565b005b3480156101d557600080fd5b506101de61072d565b604051808215151515815260200191505060405180910390f35b34801561020457600080fd5b5061020d610780565b6040518082815260200191505060405180910390f35b61022b61078a565b6040518082815260200191505060405180910390f35b61024961079c565b005b34801561025757600080fd5b506102606107ae565b6040518080602001828103825283818151815260200191508051906020019080838360005b838110156102a0578082015181840152602081019050610285565b50505050905090810190601f1680156102cd5780820380516001836020036101000a031916815260200191505b509250505060405180910390f35b3480156102e757600080fd5b5061032a600480360360208110156102fe57600080fd5b81019080803573ffffffffffffffffffffffffffffffffffffffff1690602001909291905050506107eb565b005b34801561033857600080fd5b50610341610ae6565b6040518082815260200191505060405180910390f35b34801561036357600080fd5b5061036c610af0565b6040518082815260200191505060405180910390f35b34801561038e57600080fd5b506103bb600480360360208110156103a557600080fd5b8101908080359060200190929190505050610afa565b6040518082815260200191505060405180910390f35b3480156103dd57600080fd5b5061042a600480360360408110156103f457600080fd5b8101908080359060200190929190803573ffffffffffffffffffffffffffffffffffffffff169060200190929190505050610bb9565b005b34801561043857600080fd5b50610441610db2565b6040518085815260200184815260200183815260200182815260200194505050505060405180910390f35b6104b86004803603604081101561048257600080fd5b81019080803573ffffffffffffffffffffffffffffffffffffffff16906020019092919080359060200190929190505050611151565b6040518082815260200191505060405180910390f35b3480156104da57600080fd5b5061051d600480360360208110156104f157600080fd5b81019080803573ffffffffffffffffffffffffffffffffffffffff16906020019092919050505061188b565b005b34801561052b57600080fd5b5061060f6004803603606081101561054257600080fd5b81019080803590602001909291908035906020019064010000000081111561056957600080fd5b82018360208201111561057b57600080fd5b8035906020019184600183028401116401000000008311171561059d57600080fd5b91908080601f016020809104026020016040519081016040528093929190818152602001838380828437600081840152601f19601f820116905080830192505050505050509192919290803573ffffffffffffffffffffffffffffffffffffffff169060200190929190505050611a06565b005b34801561061d57600080fd5b5061064a6004803603602081101561063457600080fd5b8101908080359060200190929190505050611b69565b604051808273ffffffffffffffffffffffffffffffffffffffff1673ffffffffffffffffffffffffffffffffffffffff16815260200191505060405180910390f35b34801561069857600080fd5b506106cf600480360360408110156106af57600080fd5b810190808035906020019092919080359060200190929190505050611f93565b005b60006007600083815260200190815260200160002060030160009054906101000a900473ffffffffffffffffffffffffffffffffffffffff169050919050565b6000600254905090565b34600360008282540192505081905550565b6000600a60405180807f4b65657052616e646f6d426561636f6e53657276696365496d706c5631000000815250601d019050908152602001604051809103902060009054906101000a900460ff16905090565b6000600154905090565b6000610797600080611151565b905090565b34600260008282540192505081905550565b60606040518060400160405280600281526020017f5631000000000000000000000000000000000000000000000000000000000000815250905090565b6000600860009054906101000a900473ffffffffffffffffffffffffffffffffffffffff1673ffffffffffffffffffffffffffffffffffffffff166363dc5fcf306040518263ffffffff1660e01b8152600401808273ffffffffffffffffffffffffffffffffffffffff1673ffffffffffffffffffffffffffffffffffffffff16815260200191505060206040518083038186803b15801561088c57600080fd5b505afa1580156108a0573d6000803e3d6000fd5b505050506040513d60208110156108b657600080fd5b810190808051906020019092919050505090503373ffffffffffffffffffffffffffffffffffffffff168173ffffffffffffffffffffffffffffffffffffffff161461094d576040517f08c379a0000000000000000000000000000000000000000000000000000000008152600401808060200182810382526028815260200180612bea6028913960400191505060405180910390fd5b600860009054906101000a900473ffffffffffffffffffffffffffffffffffffffff1673ffffffffffffffffffffffffffffffffffffffff166384d57689836040518263ffffffff1660e01b8152600401808273ffffffffffffffffffffffffffffffffffffffff1673ffffffffffffffffffffffffffffffffffffffff16815260200191505060206040518083038186803b1580156109ec57600080fd5b505afa158015610a00573d6000803e3d6000fd5b505050506040513d6020811015610a1657600080fd5b8101908080519060200190929190505050610a7c576040517f08c379a0000000000000000000000000000000000000000000000000000000008152600401808060200182810382526021815260200180612bc96021913960400191505060405180910390fd5b60098290806001815401808255809150509060018203906000526020600020016000909192909190916101000a81548173ffffffffffffffffffffffffffffffffffffffff021916908373ffffffffffffffffffffffffffffffffffffffff160217905550505050565b6000600354905090565b6000600654905090565b6000621e8480821115610b58576040517f08c379a0000000000000000000000000000000000000000000000000000000008152600401808060200182810382526026815260200180612d3d6026913960400191505060405180910390fd5b600080600080610b66610db2565b9350935093509350610bae610b7b878361234a565b610ba084610b92878961239090919063ffffffff16565b61239090919063ffffffff16565b61239090919063ffffffff16565b945050505050919050565b610bc161072d565b15610c34576040517f08c379a00000000000000000000000000000000000000000000000000000000081526004018080602001828103825260208152602001807f436f6e747261637420697320616c726561647920696e697469616c697a65642e81525060200191505060405180910390fd5b600073ffffffffffffffffffffffffffffffffffffffff168173ffffffffffffffffffffffffffffffffffffffff161415610cd7576040517f08c379a000000000000000000000000000000000000000000000000000000000815260040180806020018281038252601a8152602001807f496e636f7272656374207265676973747279206164647265737300000000000081525060200191505060405180910390fd5b6001600a60405180807f4b65657052616e646f6d426561636f6e53657276696365496d706c5631000000815250601d019050908152602001604051809103902060006101000a81548160ff02191690831515021790555081600181905550604051806060016040528060408152602001612ccc6040913960059080519060200190610d63929190612af7565b5080600860006101000a81548173ffffffffffffffffffffffffffffffffffffffff021916908373ffffffffffffffffffffffffffffffffffffffff1602179055506127f26006819055505050565b60008060008060008090505b60098054905081101561104f57600060098281548110610dda57fe5b9060005260206000200160009054906101000a900473ffffffffffffffffffffffffffffffffffffffff16905060008173ffffffffffffffffffffffffffffffffffffffff1663bf9524966040518163ffffffff1660e01b815260040160206040518083038186803b158015610e4f57600080fd5b505afa158015610e63573d6000803e3d6000fd5b505050506040513d6020811015610e7957600080fd5b810190808051906020019092919050505011156110415760008173ffffffffffffffffffffffffffffffffffffffff1663517471a96040518163ffffffff1660e01b815260040160206040518083038186803b158015610ed857600080fd5b505afa158015610eec573d6000803e3d6000fd5b505050506040513d6020811015610f0257600080fd5b8101908080519060200190929190505050905086811115610f21578096505b8173ffffffffffffffffffffffffffffffffffffffff1663c44389466040518163ffffffff1660e01b815260040160206040518083038186803b158015610f6757600080fd5b505afa158015610f7b573d6000803e3d6000fd5b505050506040513d6020811015610f9157600080fd5b8101908080519060200190929190505050905084811115610fb0578094505b8173ffffffffffffffffffffffffffffffffffffffff1663e1f4d6326040518163ffffffff1660e01b815260040160206040518083038186803b158015610ff657600080fd5b505afa15801561100a573d6000803e3d6000fd5b505050506040513d602081101561102057600080fd5b810190808051906020019092919050505090508381111561103f578093505b505b508080600101915050610dbe565b506000600961106d600160098054905061241890919063ffffffff16565b8154811061107757fe5b9060005260206000200160009054906101000a900473ffffffffffffffffffffffffffffffffffffffff16905060008173ffffffffffffffffffffffffffffffffffffffff1663c300d0586040518163ffffffff1660e01b815260040160206040518083038186803b1580156110ec57600080fd5b505afa158015611100573d6000803e3d6000fd5b505050506040513d602081101561111657600080fd5b810190808051906020019092919050505090508561113f6001548361246290919063ffffffff16565b85859550955095509550505090919293565b600060016000808282540192505081905550600080549050621e84808311156111c5576040517f08c379a0000000000000000000000000000000000000000000000000000000008152600401808060200182810382526026815260200180612d3d6026913960400191505060405180910390fd5b6111ce83610afa565b341015611226576040517f08c379a0000000000000000000000000000000000000000000000000000000008152600401808060200182810382526026815260200180612ca66026913960400191505060405180910390fd5b600080600080611234610db2565b935093509350935060006112758361126786611259893461241890919063ffffffff16565b61241890919063ffffffff16565b61241890919063ffffffff16565b90508360026000828254019250508190555060006112fe600560405180828054600181600116156101000203166002900480156112e95780601f106112c75761010080835404028352918201916112e9565b820191906000526020600020905b8154815290600101906020018083116112d5575b5050915050604051809103902060001c611b69565b905060006114158273ffffffffffffffffffffffffffffffffffffffff1663517471a96040518163ffffffff1660e01b815260040160206040518083038186803b15801561134b57600080fd5b505afa15801561135f573d6000803e3d6000fd5b505050506040513d602081101561137557600080fd5b81019080805190602001909291905050508373ffffffffffffffffffffffffffffffffffffffff1663c44389466040518163ffffffff1660e01b815260040160206040518083038186803b1580156113cc57600080fd5b505afa1580156113e0573d6000803e3d6000fd5b505050506040513d60208110156113f657600080fd5b810190808051906020019092919050505061239090919063ffffffff16565b9050600460008154809291906001019190505550600060045490508273ffffffffffffffffffffffffffffffffffffffff16639b3d270a61145f868561239090919063ffffffff16565b8360056040518463ffffffff1660e01b815260040180838152602001806020018281038252838181546001816001161561010002031660029004815260200191508054600181600116156101000203166002900480156115005780601f106114d557610100808354040283529160200191611500565b820191906000526020600020905b8154815290600101906020018083116114e357829003601f168201915b505093505050506000604051808303818588803b15801561152057600080fd5b505af1158015611534573d6000803e3d6000fd5b5050505050600061156083611552898c61239090919063ffffffff16565b61241890919063ffffffff16565b90506115778160035461239090919063ffffffff16565b600381905550600073ffffffffffffffffffffffffffffffffffffffff168d73ffffffffffffffffffffffffffffffffffffffff16146116b75760405180608001604052808e73ffffffffffffffffffffffffffffffffffffffff1681526020018681526020018d81526020013373ffffffffffffffffffffffffffffffffffffffff168152506007600084815260200190815260200160002060008201518160000160006101000a81548173ffffffffffffffffffffffffffffffffffffffff021916908373ffffffffffffffffffffffffffffffffffffffff160217905550602082015181600101556040820151816002015560608201518160030160006101000a81548173ffffffffffffffffffffffffffffffffffffffff021916908373ffffffffffffffffffffffffffffffffffffffff1602179055509050505b6064600354106117ca5760006116d9600160035461246290919063ffffffff16565b90508060036000828254039250508190555060003373ffffffffffffffffffffffffffffffffffffffff168260405180600001905060006040518083038185875af1925050503d806000811461174b576040519150601f19603f3d011682016040523d82523d6000602084013e611750565b606091505b50509050806117c7576040517f08c379a00000000000000000000000000000000000000000000000000000000081526004018080602001828103825260178152602001807f4661696c65642073656e6420737562736964792066656500000000000000000081525060200191505060405180910390fd5b50505b7fc65bedbc1f2ce56540b8b4e1b7b41261bef9dc7aee32cb3b6806a70c5f4828fa826040518082815260200191505060405180910390a1819a505050505050505050506000548114611884576040517f08c379a000000000000000000000000000000000000000000000000000000000815260040180806020018281038252601f8152602001807f5265656e7472616e637947756172643a207265656e7472616e742063616c6c0081525060200191505060405180910390fd5b5092915050565b6000600860009054906101000a900473ffffffffffffffffffffffffffffffffffffffff1673ffffffffffffffffffffffffffffffffffffffff166363dc5fcf306040518263ffffffff1660e01b8152600401808273ffffffffffffffffffffffffffffffffffffffff1673ffffffffffffffffffffffffffffffffffffffff16815260200191505060206040518083038186803b15801561192c57600080fd5b505afa158015611940573d6000803e3d6000fd5b505050506040513d602081101561195657600080fd5b810190808051906020019092919050505090503373ffffffffffffffffffffffffffffffffffffffff168173ffffffffffffffffffffffffffffffffffffffff16146119ed576040517f08c379a0000000000000000000000000000000000000000000000000000000008152600401808060200182810382526028815260200180612bea6028913960400191505060405180910390fd5b611a0182600961249290919063ffffffff16565b505050565b611a9f336009805480602002602001604051908101604052809291908181526020018280548015611a8c57602002820191906000526020600020905b8160009054906101000a900473ffffffffffffffffffffffffffffffffffffffff1673ffffffffffffffffffffffffffffffffffffffff1681526020019060010190808311611a42575b50505050506125f790919063ffffffff16565b611af4576040517f08c379a0000000000000000000000000000000000000000000000000000000008152600401808060200182810382526037815260200180612c4e6037913960400191505060405180910390fd5b8160059080519060200190611b0a929190612af7565b506000828051906020012060001c90507fddb7473cb5eaf3aaa2cf09ea9d573d4876aac471614f99773f32a4b5994ea7e18482604051808381526020018281526020019250505060405180910390a1611b638183612672565b50505050565b60008060006060600980549050604051908082528060200260200182016040528015611ba45781602001602082028038833980820191505090505b50905060008090505b600980549050811015611e2057600860009054906101000a900473ffffffffffffffffffffffffffffffffffffffff1673ffffffffffffffffffffffffffffffffffffffff166384d5768960098381548110611c0557fe5b9060005260206000200160009054906101000a900473ffffffffffffffffffffffffffffffffffffffff166040518263ffffffff1660e01b8152600401808273ffffffffffffffffffffffffffffffffffffffff1673ffffffffffffffffffffffffffffffffffffffff16815260200191505060206040518083038186803b158015611c9057600080fd5b505afa158015611ca4573d6000803e3d6000fd5b505050506040513d6020811015611cba57600080fd5b810190808051906020019092919050505015611e135760098181548110611cdd57fe5b9060005260206000200160009054906101000a900473ffffffffffffffffffffffffffffffffffffffff1673ffffffffffffffffffffffffffffffffffffffff1663bf9524966040518163ffffffff1660e01b815260040160206040518083038186803b158015611d4d57600080fd5b505afa158015611d61573d6000803e3d6000fd5b505050506040513d6020811015611d7757600080fd5b81019080805190602001909291905050508401935060098181548110611d9957fe5b9060005260206000200160009054906101000a900473ffffffffffffffffffffffffffffffffffffffff16828481518110611dd057fe5b602002602001019073ffffffffffffffffffffffffffffffffffffffff16908173ffffffffffffffffffffffffffffffffffffffff168152505082806001019350505b8080600101915050611bad565b5060008311611e7a576040517f08c379a0000000000000000000000000000000000000000000000000000000008152600401808060200182810382526031815260200180612d0c6031913960400191505060405180910390fd5b6000838681611e8557fe5b06905060008060008090505b85811015611f7057848181518110611ea557fe5b602002602001015173ffffffffffffffffffffffffffffffffffffffff1663bf9524966040518163ffffffff1660e01b815260040160206040518083038186803b158015611ef257600080fd5b505afa158015611f06573d6000803e3d6000fd5b505050506040513d6020811015611f1c57600080fd5b81019080805190602001909291905050508201915081841015611f5b57848381518110611f4557fe5b6020026020010151975050505050505050611f8e565b82806001019350508080600101915050611e91565b50838281518110611f7d57fe5b602002602001015196505050505050505b919050565b61202c33600980548060200260200160405190810160405280929190818152602001828054801561201957602002820191906000526020600020905b8160009054906101000a900473ffffffffffffffffffffffffffffffffffffffff1673ffffffffffffffffffffffffffffffffffffffff1681526020019060010190808311611fcf575b50505050506125f790919063ffffffff16565b612081576040517f08c379a000000000000000000000000000000000000000000000000000000000815260040180806020018281038252603c815260200180612c12603c913960400191505060405180910390fd5b600073ffffffffffffffffffffffffffffffffffffffff166007600084815260200190815260200160002060000160009054906101000a900473ffffffffffffffffffffffffffffffffffffffff1673ffffffffffffffffffffffffffffffffffffffff16141561215a576040517f08c379a000000000000000000000000000000000000000000000000000000000815260040180806020018281038252601b8152602001807f43616c6c6261636b20636f6e7472616374206e6f7420666f756e64000000000081525060200191505060405180910390fd5b6007600083815260200190815260200160002060000160009054906101000a900473ffffffffffffffffffffffffffffffffffffffff1673ffffffffffffffffffffffffffffffffffffffff1681604051602401808281526020019150506040516020818303038152906040527f356e0728000000000000000000000000000000000000000000000000000000007bffffffffffffffffffffffffffffffffffffffffffffffffffffffff19166020820180517bffffffffffffffffffffffffffffffffffffffffffffffffffffffff83818316178352505050506040518082805190602001908083835b602083106122685780518252602082019150602081019050602083039250612245565b6001836020036101000a0380198251168184511680821785525050505050509050019150506000604051808303816000865af19150503d80600081146122ca576040519150601f19603f3d011682016040523d82523d6000602084013e6122cf565b606091505b50505060076000838152602001908152602001600020600080820160006101000a81549073ffffffffffffffffffffffffffffffffffffffff0219169055600182016000905560028201600090556003820160006101000a81549073ffffffffffffffffffffffffffffffffffffffff021916905550505050565b6000806000841461236f5761236a6006548561239090919063ffffffff16565b612372565b60005b905061238783826128a190919063ffffffff16565b91505092915050565b60008082840190508381101561240e576040517f08c379a000000000000000000000000000000000000000000000000000000000815260040180806020018281038252601b8152602001807f536166654d6174683a206164646974696f6e206f766572666c6f77000000000081525060200191505060405180910390fd5b8091505092915050565b600061245a83836040518060400160405280601e81526020017f536166654d6174683a207375627472616374696f6e206f766572666c6f770000815250612927565b905092915050565b600061248a606461247c84866128a190919063ffffffff16565b6129e790919063ffffffff16565b905092915050565b600080600090505b83805490508110156125ed578381815481106124b257fe5b9060005260206000200160009054906101000a900473ffffffffffffffffffffffffffffffffffffffff1673ffffffffffffffffffffffffffffffffffffffff168373ffffffffffffffffffffffffffffffffffffffff1614156125e05760008190505b60018580549050038110156125c05784600182018154811061253457fe5b9060005260206000200160009054906101000a900473ffffffffffffffffffffffffffffffffffffffff1685828154811061256b57fe5b9060005260206000200160006101000a81548173ffffffffffffffffffffffffffffffffffffffff021916908373ffffffffffffffffffffffffffffffffffffffff1602179055508080600101915050612516565b50838054809190600190036125d59190612b77565b508080600190039150505b808060010191505061249a565b5082905092915050565b600080600090505b83518110156126665783818151811061261457fe5b602002602001015173ffffffffffffffffffffffffffffffffffffffff168373ffffffffffffffffffffffffffffffffffffffff16141561265957600191505061266c565b80806001019150506125ff565b50600090505b92915050565b6000600961268f600160098054905061241890919063ffffffff16565b8154811061269957fe5b9060005260206000200160009054906101000a900473ffffffffffffffffffffffffffffffffffffffff16905060008173ffffffffffffffffffffffffffffffffffffffff1663c300d0586040518163ffffffff1660e01b815260040160206040518083038186803b15801561270e57600080fd5b505afa158015612722573d6000803e3d6000fd5b505050506040513d602081101561273857600080fd5b8101908080519060200190929190505050905080600254101580156127da57508173ffffffffffffffffffffffffffffffffffffffff166321a8f86c6040518163ffffffff1660e01b815260040160206040518083038186803b15801561279e57600080fd5b505afa1580156127b2573d6000803e3d6000fd5b505050506040513d60208110156127c857600080fd5b81019080805190602001909291905050505b1561289b578173ffffffffffffffffffffffffffffffffffffffff1663c96e71fb8286866040518463ffffffff1660e01b8152600401808381526020018273ffffffffffffffffffffffffffffffffffffffff1673ffffffffffffffffffffffffffffffffffffffff168152602001925050506000604051808303818588803b15801561286657600080fd5b505af115801561287a573d6000803e3d6000fd5b50505050506128948160025461241890919063ffffffff16565b6002819055505b50505050565b6000808314156128b45760009050612921565b60008284029050828482816128c557fe5b041461291c576040517f08c379a0000000000000000000000000000000000000000000000000000000008152600401808060200182810382526021815260200180612c856021913960400191505060405180910390fd5b809150505b92915050565b60008383111582906129d4576040517f08c379a00000000000000000000000000000000000000000000000000000000081526004018080602001828103825283818151815260200191508051906020019080838360005b8381101561299957808201518184015260208101905061297e565b50505050905090810190601f1680156129c65780820380516001836020036101000a031916815260200191505b509250505060405180910390fd5b5060008385039050809150509392505050565b6000612a2983836040518060400160405280601a81526020017f536166654d6174683a206469766973696f6e206279207a65726f000000000000815250612a31565b905092915050565b60008083118290612add576040517f08c379a00000000000000000000000000000000000000000000000000000000081526004018080602001828103825283818151815260200191508051906020019080838360005b83811015612aa2578082015181840152602081019050612a87565b50505050905090810190601f168015612acf5780820380516001836020036101000a031916815260200191505b509250505060405180910390fd5b506000838581612ae957fe5b049050809150509392505050565b828054600181600116156101000203166002900490600052602060002090601f016020900481019282601f10612b3857805160ff1916838001178555612b66565b82800160010185558215612b66579182015b82811115612b65578251825591602001919060010190612b4a565b5b509050612b739190612ba3565b5090565b815481835581811115612b9e57818360005260206000209182019101612b9d9190612ba3565b5b505050565b612bc591905b80821115612bc1576000816000905550600101612ba9565b5090565b9056fe4f70657261746f7220636f6e7472616374206973206e6f7420617070726f76656443616c6c6572206973206e6f74206f70657261746f7220636f6e74726163742075706772616465724f6e6c7920617574686f72697a6564206f70657261746f7220636f6e74726163742063616e2063616c6c20657865637574652063616c6c6261636b2e4f6e6c7920617574686f72697a6564206f70657261746f7220636f6e74726163742063616e2063616c6c2072656c617920656e7472792e536166654d6174683a206d756c7469706c69636174696f6e206f766572666c6f775061796d656e74206973206c657373207468616e207265717569726564206d696e696d756d2e15c30f4b6cf6dbbcbdcc10fe22f54c8170aea44e198139b776d512d8f027319a1b9e8bfaf1383978231ce98e42bafc8129f473fc993cf60ce327f7d223460663546f74616c206e756d626572206f662067726f757073206d7573742062652067726561746572207468616e207a65726f2e43616c6c6261636b206761732065786365656473203230303030303020676173206c696d6974a265627a7a723158204771c538c07810235057cb32f6793562c86dda6297514d62558358e4f7ab3d6264736f6c63430005110032",
  "source": "/**\n     \n   \n                            \n                             \n                           \n                           \n                          \n     \n     \n\n                           Trust math, not hardware.\n*/\n\npragma solidity 0.5.17;\n\nimport \"openzeppelin-solidity/contracts/math/SafeMath.sol\";\nimport \"openzeppelin-solidity/contracts/utils/ReentrancyGuard.sol\";\nimport \"./utils/AddressArrayUtils.sol\";\nimport \"./utils/PercentUtils.sol\";\nimport \"./KeepRegistry.sol\";\nimport \"./IRandomBeacon.sol\";\n\n\ninterface OperatorContract {\n    function entryVerificationFee() external view returns(uint256);\n    function groupCreationFee() external view returns(uint256);\n    function groupProfitFee() external view returns(uint256);\n    function gasPriceCeiling() external view returns(uint256);\n    function sign(\n        uint256 requestId,\n        bytes calldata previousEntry\n    ) external payable;\n    function numberOfGroups() external view returns(uint256);\n    function createGroup(uint256 newEntry, address payable submitter) external payable;\n    function isGroupSelectionPossible() external view returns (bool);\n}\n\n/// @title KeepRandomBeaconServiceImplV1\n/// @notice Initial version of service contract that works under Keep Random\n/// Beacon proxy and allows upgradability. The purpose of the contract is to have\n/// up-to-date logic for threshold random number generation. Updated contracts\n/// must inherit from this contract and have to be initialized under updated version\n/// name.\n/// @dev Warning: you can't set constants directly in the contract and must use\n/// initialize() please see openzeppelin upgradeable contracts approach for more\n/// info.\ncontract KeepRandomBeaconServiceImplV1 is ReentrancyGuard, IRandomBeacon {\n    using SafeMath for uint256;\n    using PercentUtils for uint256;\n    using AddressArrayUtils for address[];\n\n    event RelayEntryRequested(uint256 requestId);\n\n    /// @dev Fraction in % of the estimated cost of DKG that is included\n    /// in relay request fee.\n    uint256 internal _dkgContributionMargin;\n\n    /// @dev Every relay request payment includes DKG contribution that is added to\n    /// the DKG fee pool, once the pool value reaches the required minimum, a new\n    /// relay entry will trigger the creation of a new group. Expressed in wei.\n    uint256 internal _dkgFeePool;\n\n    /// @dev Rewards not paid out to the operators are sent to request subsidy pool to\n    /// subsidize new requests: 1% of the subsidy pool is returned to the requester's\n    /// surplus address. Expressed in wei.\n    uint256 internal _requestSubsidyFeePool;\n\n    /// @dev Each service contract tracks its own requests and these are independent\n    /// from operator contracts which track signing requests instead.\n    uint256 internal _requestCounter;\n\n    /// @dev Previous entry value produced by the beacon.\n    bytes internal _previousEntry;\n\n    /// @dev The cost of executing executeCallback() code of this contract, includes\n    /// everything but the logic of the external contract called.\n    /// The value is used to estimate the cost of executing a callback and is\n    /// used for calculating callback call surplus reimbursement for requestor.\n    ///\n    /// This value has to be updated in case of EVM opcode price change, but since\n    /// upgrading service contract is easy, it is not a worrisome problem.\n    uint256 internal _baseCallbackGas;\n\n    struct Callback {\n        address callbackContract;\n        uint256 callbackFee;\n        uint256 callbackGas;\n        address payable surplusRecipient;\n    }\n\n    mapping(uint256 => Callback) internal _callbacks;\n\n    /// @dev KeepRegistry contract with a list of approved operator contracts and upgraders.\n    address internal _registry;\n\n    address[] internal _operatorContracts;\n\n    /// @dev Mapping to store new implementation versions that inherit from this contract.\n    mapping (string => bool) internal _initialized;\n\n    /// @dev Seed used as the first random beacon value.\n    /// It's a G1 point G * PI =\n    /// G * 31415926535897932384626433832795028841971693993751058209749445923078164062862\n    /// Where G is the generator of G1 abstract cyclic group.\n    bytes constant internal _beaconSeed =\n    hex\"15c30f4b6cf6dbbcbdcc10fe22f54c8170aea44e198139b776d512d8f027319a1b9e8bfaf1383978231ce98e42bafc8129f473fc993cf60ce327f7d223460663\";\n\n    /// @dev Throws if called by any account other than the operator contract\n    /// upgrader authorized for this service contract.\n    modifier onlyOperatorContractUpgrader() {\n        address operatorContractUpgrader = KeepRegistry(_registry).operatorContractUpgraderFor(address(this));\n        require(operatorContractUpgrader == msg.sender, \"Caller is not operator contract upgrader\");\n        _;\n    }\n\n    constructor() public {\n        _initialized[\"KeepRandomBeaconServiceImplV1\"] = true;\n    }\n\n    /// @notice Initialize Keep Random Beacon service contract implementation.\n    /// @param dkgContributionMargin Fraction in % of the estimated cost of DKG that is included in relay\n    /// request fee.\n    /// @param registry KeepRegistry contract linked to this contract.\n    function initialize(\n        uint256 dkgContributionMargin,\n        address registry\n    )\n        public\n    {\n        require(!initialized(), \"Contract is already initialized.\");\n        require(registry != address(0), \"Incorrect registry address\");\n\n        _initialized[\"KeepRandomBeaconServiceImplV1\"] = true;\n        _dkgContributionMargin = dkgContributionMargin;\n        _previousEntry = _beaconSeed;\n        _registry = registry;\n        _baseCallbackGas = 10226;\n    }\n\n    /// @notice Checks if this contract is initialized.\n    function initialized() public view returns (bool) {\n        return _initialized[\"KeepRandomBeaconServiceImplV1\"];\n    }\n\n    /// @notice Adds operator contract\n    /// @param operatorContract Address of the operator contract.\n    function addOperatorContract(address operatorContract) public onlyOperatorContractUpgrader {\n        require(\n            KeepRegistry(_registry).isApprovedOperatorContract(operatorContract),\n            \"Operator contract is not approved\"\n        );\n        _operatorContracts.push(operatorContract);\n    }\n\n    /// @notice Removes operator contract\n    /// @param operatorContract Address of the operator contract.\n    function removeOperatorContract(address operatorContract) public onlyOperatorContractUpgrader {\n        _operatorContracts.removeAddress(operatorContract);\n    }\n\n    /// @notice Add funds to DKG fee pool.\n    function fundDkgFeePool() public payable {\n        _dkgFeePool += msg.value;\n    }\n\n    /// @notice Add funds to request subsidy fee pool.\n    function fundRequestSubsidyFeePool() public payable {\n        _requestSubsidyFeePool += msg.value;\n    }\n\n    /// @notice Selects an operator contract from the available list using modulo\n    /// operation with seed value weighted by the number of active groups on each\n    /// operator contract.\n    /// @param seed Cryptographically generated random value.\n    /// @return Address of operator contract.\n    function selectOperatorContract(uint256 seed) public view returns (address) {\n\n        uint256 totalNumberOfGroups;\n\n        uint256 approvedContractsCounter;\n        address[] memory approvedContracts = new address[](_operatorContracts.length);\n\n        for (uint i = 0; i < _operatorContracts.length; i++) {\n            if (KeepRegistry(_registry).isApprovedOperatorContract(_operatorContracts[i])) {\n                totalNumberOfGroups += OperatorContract(_operatorContracts[i]).numberOfGroups();\n                approvedContracts[approvedContractsCounter] = _operatorContracts[i];\n                approvedContractsCounter++;\n            }\n        }\n\n        require(totalNumberOfGroups > 0, \"Total number of groups must be greater than zero.\");\n\n        uint256 selectedIndex = seed % totalNumberOfGroups;\n\n        uint256 selectedContract;\n        uint256 indexByGroupCount;\n\n        for (uint256 i = 0; i < approvedContractsCounter; i++) {\n            indexByGroupCount += OperatorContract(approvedContracts[i]).numberOfGroups();\n            if (selectedIndex < indexByGroupCount) {\n                return approvedContracts[selectedContract];\n            }\n            selectedContract++;\n        }\n\n        return approvedContracts[selectedContract];\n    }\n\n    /// @notice Creates a request to generate a new relay entry, which will include\n    /// a random number (by signing the previous entry's random number).\n    /// @return An uint256 representing uniquely generated entry Id.\n    function requestRelayEntry() public payable returns (uint256) {\n        return requestRelayEntry(address(0), 0);\n    }\n\n    /// @notice Creates a request to generate a new relay entry (random number).\n    /// @param callbackContract Callback contract address. Callback is called\n    /// once a new relay entry has been generated. Callback contract must\n    /// declare public `__beaconCallback(uint256)` function that is going to be\n    /// executed with the result, once ready.\n    /// @param callbackGas Gas required for the callback (2 million gas max).\n    /// The customer needs to ensure they provide a sufficient callback gas\n    /// to cover the gas fee of executing the callback. Any surplus is returned\n    /// to the customer. If the callback gas amount turns to be not enough to\n    /// execute the callback, callback execution is skipped.\n    /// @return An uint256 representing uniquely generated relay request ID. It\n    /// is also returned as part of the event.\n    function requestRelayEntry(\n        address callbackContract,\n        uint256 callbackGas\n    ) public nonReentrant payable returns (uint256) {\n        require(\n            callbackGas <= 2000000,\n            \"Callback gas exceeds 2000000 gas limit\"\n        );\n\n        require(\n            msg.value >= entryFeeEstimate(callbackGas),\n            \"Payment is less than required minimum.\"\n        );\n\n        (\n            uint256 entryVerificationFee,\n            uint256 dkgContributionFee,\n            uint256 groupProfitFee,\n            uint256 gasPriceCeiling\n        ) = entryFeeBreakdown();\n\n        uint256 callbackFee = msg.value.sub(entryVerificationFee)\n            .sub(dkgContributionFee).sub(groupProfitFee);\n\n        _dkgFeePool += dkgContributionFee;\n\n        OperatorContract operatorContract = OperatorContract(\n            selectOperatorContract(uint256(keccak256(_previousEntry)))\n        );\n\n        uint256 selectedOperatorContractFee = operatorContract.groupProfitFee().add(\n            operatorContract.entryVerificationFee()\n        );\n\n        _requestCounter++;\n        uint256 requestId = _requestCounter;\n\n        operatorContract.sign.value(\n            selectedOperatorContractFee.add(callbackFee)\n        )(requestId, _previousEntry);\n\n        // If selected operator contract is cheaper than expected return the\n        // surplus to the subsidy fee pool.\n        // We do that instead of returning the surplus to the requestor to have\n        // a consistent beacon pricing for customers without fluctuations caused\n        // by different operator contracts being selected.\n        uint256 surplus = entryVerificationFee.add(groupProfitFee).sub(selectedOperatorContractFee);\n        _requestSubsidyFeePool = _requestSubsidyFeePool.add(surplus);\n\n        if (callbackContract != address(0)) {\n            _callbacks[requestId] = Callback(callbackContract, callbackFee, callbackGas, msg.sender);\n        }\n\n        // Send 1% of the request subsidy pool to the requestor.\n        if (_requestSubsidyFeePool >= 100) {\n            uint256 amount = _requestSubsidyFeePool.percent(1);\n            _requestSubsidyFeePool -= amount;\n            (bool success, ) = msg.sender.call.value(amount)(\"\");\n            require(success, \"Failed send subsidy fee\");\n        }\n\n        emit RelayEntryRequested(requestId);\n        return requestId;\n    }\n\n    /// @notice Store valid entry returned by operator contract and call customer\n    /// specified callback if required.\n    /// @param requestId Request id tracked internally by this contract.\n    /// @param entry The generated random number.\n    /// @param submitter Relay entry submitter.\n    function entryCreated(uint256 requestId, bytes memory entry, address payable submitter) public {\n        require(\n            _operatorContracts.contains(msg.sender),\n            \"Only authorized operator contract can call relay entry.\"\n        );\n\n        _previousEntry = entry;\n        uint256 entryAsNumber = uint256(keccak256(entry));\n        emit RelayEntryGenerated(requestId, entryAsNumber);\n\n        createGroupIfApplicable(entryAsNumber, submitter);\n    }\n\n    /// @notice Executes customer specified callback for the relay entry request.\n    /// @param requestId Request id tracked internally by this contract.\n    /// @param entry The generated random number.\n    function executeCallback(uint256 requestId, uint256 entry) public {\n        require(\n            _operatorContracts.contains(msg.sender),\n            \"Only authorized operator contract can call execute callback.\"\n        );\n\n        require(\n            _callbacks[requestId].callbackContract != address(0),\n            \"Callback contract not found\"\n        );\n\n        _callbacks[requestId].callbackContract.call(\n            abi.encodeWithSignature(\"__beaconCallback(uint256)\", entry)\n        );\n\n        delete _callbacks[requestId];\n    }\n\n    /// @notice Triggers the selection process of a new candidate group if the\n    /// DKG fee pool equals or exceeds DKG cost estimate.\n    /// @param entry The generated random number.\n    /// @param submitter Relay entry submitter - operator.\n    function createGroupIfApplicable(uint256 entry, address payable submitter) internal {\n        address latestOperatorContract = _operatorContracts[_operatorContracts.length.sub(1)];\n        uint256 groupCreationFee = OperatorContract(latestOperatorContract).groupCreationFee();\n\n        if (_dkgFeePool >= groupCreationFee && OperatorContract(latestOperatorContract).isGroupSelectionPossible()) {\n            OperatorContract(latestOperatorContract).createGroup.value(groupCreationFee)(entry, submitter);\n            _dkgFeePool = _dkgFeePool.sub(groupCreationFee);\n        }\n    }\n\n    /// @notice Get base callback gas required for relay entry callback.\n    function baseCallbackGas() public view returns(uint256) {\n        return _baseCallbackGas;\n    }\n\n    /// @notice Get the minimum payment in wei for relay entry callback.\n    /// @param _callbackGas Gas required for the callback.\n    function callbackFee(\n        uint256 _callbackGas,\n        uint256 _gasPriceCeiling\n    ) internal view returns(uint256) {\n        // gas for the callback itself plus additional operational costs of\n        // executing the callback\n        uint256 callbackGas = _callbackGas == 0 ? 0 : _callbackGas.add(_baseCallbackGas);\n        // We take the gas price from the price feed to not let malicious\n        // miner-requestors manipulate the gas price when requesting relay entry\n        // and underpricing expensive callbacks.\n        return callbackGas.mul(_gasPriceCeiling);\n    }\n\n    /// @notice Get the entry fee estimate in wei for relay entry request.\n    /// @param callbackGas Gas required for the callback.\n    function entryFeeEstimate(uint256 callbackGas) public view returns(uint256) {\n        require(\n            callbackGas <= 2000000,\n            \"Callback gas exceeds 2000000 gas limit\"\n        );\n\n        (\n            uint256 entryVerificationFee,\n            uint256 dkgContributionFee,\n            uint256 groupProfitFee,\n            uint256 gasPriceCeiling\n        ) = entryFeeBreakdown();\n\n        return entryVerificationFee\n            .add(dkgContributionFee)\n            .add(groupProfitFee)\n            .add(callbackFee(callbackGas, gasPriceCeiling));\n    }\n\n    /// @notice Get the entry fee breakdown in wei for relay entry request.\n    function entryFeeBreakdown() public view returns(\n        uint256 entryVerificationFee,\n        uint256 dkgContributionFee,\n        uint256 groupProfitFee,\n        uint256 gasPriceCeiling\n    ) {\n        // Select the most expensive entry verification from all the operator contracts\n        // and the highest group profit fee from all the operator contracts. We do not\n        // know what is going to be the gas price at the moment of submitting an entry,\n        // thus we can't calculate at this point which contract is the most expensive\n        // based on the entry verification gas and group profit fee. Hence, we need to\n        // select maximum of both those values separately.\n        for (uint i = 0; i < _operatorContracts.length; i++) {\n            OperatorContract operator = OperatorContract(_operatorContracts[i]);\n\n            if (operator.numberOfGroups() > 0) {\n                uint256 operatorBid = operator.entryVerificationFee();\n                if (operatorBid > entryVerificationFee) {\n                    entryVerificationFee = operatorBid;\n                }\n\n                operatorBid = operator.groupProfitFee();\n                if (operatorBid > groupProfitFee) {\n                    groupProfitFee = operatorBid;\n                }\n\n                operatorBid = operator.gasPriceCeiling();\n                if (operatorBid > gasPriceCeiling) {\n                    gasPriceCeiling = operatorBid;\n                }\n            }\n        }\n\n        // Use DKG gas estimate from the latest operator contract since it will be used for the next group creation.\n        address latestOperatorContract = _operatorContracts[_operatorContracts.length.sub(1)];\n        uint256 groupCreationFee = OperatorContract(latestOperatorContract).groupCreationFee();\n\n        return (\n            entryVerificationFee,\n            groupCreationFee.percent(_dkgContributionMargin),\n            groupProfitFee,\n            gasPriceCeiling\n        );\n    }\n\n    /// @notice Returns DKG contribution margin - a fraction in % of the\n    /// estimated cost of DKG that is included in relay request fee.\n    function dkgContributionMargin() public view returns(uint256) {\n        return _dkgContributionMargin;\n    }\n\n    /// @notice Returns the current DKG fee pool value.\n    /// Every relay request payment includes DKG contribution that is added to\n    /// the DKG fee pool, once the pool value reaches the required minimum, a new\n    /// relay entry will trigger the creation of a new group. Expressed in wei.\n    function dkgFeePool() public view returns(uint256) {\n        return _dkgFeePool;\n    }\n\n    /// @notice Returns the current value of request subsidy pool.\n    /// Rewards not paid out to the operators are sent to request subsidy pool to\n    /// subsidize new requests: 1% of the subsidy pool is returned to the requester's\n    /// surplus address. Expressed in wei.\n    function requestSubsidyFeePool() public view returns(uint256) {\n        return _requestSubsidyFeePool;\n    }\n\n    /// @notice Returns callback surplus recipient for the provided request id.\n    function callbackSurplusRecipient(uint256 requestId) public view returns(address payable) {\n        return _callbacks[requestId].surplusRecipient;\n    }\n\n    /// @notice Gets version of the current implementation.\n    function version() public pure returns (string memory) {\n        return \"V1\";\n    }\n}\n",
  "sourcePath": "/home/circleci/project/solidity/contracts/KeepRandomBeaconServiceImplV1.sol",
  "compiler": {
    "name": "solc",
    "version": "0.5.17+commit.d19bba13.Emscripten.clang"
  },
  "schemaVersion": "3.2.0",
  "updatedAt": "2020-08-30T13:47:14.097Z",
  "networkType": "ethereum",
  "devdoc": {
    "details": "Warning: you can't set constants directly in the contract and must use initialize() please see openzeppelin upgradeable contracts approach for more info.",
    "methods": {
      "addOperatorContract(address)": {
        "params": {
          "operatorContract": "Address of the operator contract."
        }
      },
      "entryCreated(uint256,bytes,address)": {
        "params": {
          "entry": "The generated random number.",
          "requestId": "Request id tracked internally by this contract.",
          "submitter": "Relay entry submitter."
        }
      },
      "entryFeeEstimate(uint256)": {
        "params": {
          "callbackGas": "Gas required for the callback."
        }
      },
      "executeCallback(uint256,uint256)": {
        "params": {
          "entry": "The generated random number.",
          "requestId": "Request id tracked internally by this contract."
        }
      },
      "initialize(uint256,address)": {
        "params": {
          "dkgContributionMargin": "Fraction in % of the estimated cost of DKG that is included in relay request fee.",
          "registry": "KeepRegistry contract linked to this contract."
        }
      },
      "removeOperatorContract(address)": {
        "params": {
          "operatorContract": "Address of the operator contract."
        }
      },
      "requestRelayEntry()": {
        "return": "An uint256 representing uniquely generated entry Id."
      },
      "requestRelayEntry(address,uint256)": {
        "params": {
          "callbackContract": "Callback contract address. Callback is called once a new relay entry has been generated. Callback contract must declare public `__beaconCallback(uint256)` function that is going to be executed with the result, once ready.",
          "callbackGas": "Gas required for the callback (2 million gas max). The customer needs to ensure they provide a sufficient callback gas to cover the gas fee of executing the callback. Any surplus is returned to the customer. If the callback gas amount turns to be not enough to execute the callback, callback execution is skipped."
        },
        "return": "An uint256 representing uniquely generated relay request ID. It is also returned as part of the event."
      },
      "selectOperatorContract(uint256)": {
        "params": {
          "seed": "Cryptographically generated random value."
        },
        "return": "Address of operator contract."
      }
    },
    "title": "KeepRandomBeaconServiceImplV1"
  },
  "userdoc": {
    "methods": {
      "addOperatorContract(address)": {
        "notice": "Adds operator contract"
      },
      "baseCallbackGas()": {
        "notice": "Get base callback gas required for relay entry callback."
      },
      "callbackSurplusRecipient(uint256)": {
        "notice": "Returns callback surplus recipient for the provided request id."
      },
      "dkgContributionMargin()": {
        "notice": "Returns DKG contribution margin - a fraction in % of the estimated cost of DKG that is included in relay request fee."
      },
      "dkgFeePool()": {
        "notice": "Returns the current DKG fee pool value. Every relay request payment includes DKG contribution that is added to the DKG fee pool, once the pool value reaches the required minimum, a new relay entry will trigger the creation of a new group. Expressed in wei."
      },
      "entryCreated(uint256,bytes,address)": {
        "notice": "Store valid entry returned by operator contract and call customer specified callback if required."
      },
      "entryFeeBreakdown()": {
        "notice": "Get the entry fee breakdown in wei for relay entry request."
      },
      "entryFeeEstimate(uint256)": {
        "notice": "Get the entry fee estimate in wei for relay entry request."
      },
      "executeCallback(uint256,uint256)": {
        "notice": "Executes customer specified callback for the relay entry request."
      },
      "fundDkgFeePool()": {
        "notice": "Add funds to DKG fee pool."
      },
      "fundRequestSubsidyFeePool()": {
        "notice": "Add funds to request subsidy fee pool."
      },
      "initialize(uint256,address)": {
        "notice": "Initialize Keep Random Beacon service contract implementation."
      },
      "initialized()": {
        "notice": "Checks if this contract is initialized."
      },
      "removeOperatorContract(address)": {
        "notice": "Removes operator contract"
      },
      "requestRelayEntry()": {
        "notice": "Creates a request to generate a new relay entry, which will include a random number (by signing the previous entry's random number)."
      },
      "requestRelayEntry(address,uint256)": {
        "notice": "Creates a request to generate a new relay entry (random number)."
      },
      "requestSubsidyFeePool()": {
        "notice": "Returns the current value of request subsidy pool. Rewards not paid out to the operators are sent to request subsidy pool to subsidize new requests: 1% of the subsidy pool is returned to the requester's surplus address. Expressed in wei."
      },
      "selectOperatorContract(uint256)": {
        "notice": "Selects an operator contract from the available list using modulo operation with seed value weighted by the number of active groups on each operator contract."
      },
      "version()": {
        "notice": "Gets version of the current implementation."
      }
    },
    "notice": "Initial version of service contract that works under Keep Random Beacon proxy and allows upgradability. The purpose of the contract is to have up-to-date logic for threshold random number generation. Updated contracts must inherit from this contract and have to be initialized under updated version name."
  }
}